:020000040800F2
:100000006804002001010008271100087910000889
:10001000251100086D010008D5110008000000003E
:100020000000000000000000000000002B1100088C
:100030006F01000800000000291100082D110008C0
:100040001B0100081B0100081B0100081B01000820
:100050001B0100081B0100081B0100081B01000810
:100060001B0100081B0100081B0100081B01000800
:100070001B0100081B0100081B0100081B010008F0
:100080001B0100081B0100081B0100081B010008E0
:10009000C91100081B0100081B0100081B01000812
:1000A0001B0100081B0100081B0100081B010008C0
:1000B0001B0100081B0100081B0100081B010008B0
:1000C0001B0100081B0100081B0100081B010008A0
:1000D0001B0100081B0100081B0100081B01000890
:1000E0001B0100081B0100081B010008DFF80CD0F1
:1000F00000F02AF8004800471512000868040020A4
:100100000648804706480047FEE7FEE7FEE7FEE7B1
:10011000FEE7FEE7FEE7FEE7FEE7FEE781110008E7
:10012000ED000008D2B201E000F8012B491EFBD21D
:1001300070470022F6E710B513460A4604461946F2
:10014000FFF7F0FF204610BD064C074D06E0E068C3
:1001500040F0010394E8070098471034AC42F6D30E
:10016000FFF7C8FFCC120008EC120008FEE770474A
:1001700090F82020012A07D0022A05D0416A41F4D4
:100180008021416201207047006842690A43426150
:1001900000207047F0B590F820500468A468012D45
:1001A00005D0022D03D0416A41F4802153E014F0C0
:1001B000406F01D1E5004BD5C4F30164022C03D993
:1001C000416A41F4000146E00125A5401D608D68AB
:1001D0004FF4C0739DB1CE6835434E6845EAC605FD
:1001E000066803EB0417F5514FF4C275076805EB79
:1001F00004150E697E51097D012905D009E00E889C
:10020000CD6845EA4655EBE701684E5946F48076DD
:100210004E511179D2F805504FF4C67641EA0525C2
:10022000016806EB04168D511178D2F801204FF4C5
:10023000C47541EA0221026805EB041551510068BA
:1002400003EB0411425842F0010242500020F0BD7D
:10025000416A41F4001141620120F0BD10B590F8EF
:1002600020300268012B07D0022B05D0416A41F4EF
:1002700080214162012010BDD2F8000240F001004F
:10028000C2F80002087D00F01F0301209840D2F858
:100290001C328343C2F81C32CB69B3B9D2F80C329A
:1002A0008343C2F80C328C894B6864F31F434C695A
:1002B00002EBC404C4F840320C890B6864F31F439A
:1002C0004C6902EBC404C4F84432CB69012B16D14B
:1002D000D2F80C320343C2F80C320C884B6864F33A
:1002E0001F434C6902EBC404C4F840320C89CB684C
:1002F00064F31F434C6902EBC404C4F844328B69B5
:10030000002BD2F804320FD053EA0003C2F80432B3
:100310000B69002BD2F8143208D00343C2F8143210
:10032000096A012904D008E08343EFE78343F5E736
:10033000D2F81C120143C2F81C12D2F8000220F0BD
:100340000100C2F80002002010BD704730B590F8DF
:100350002040012C05D0022C03D0416A41F48021B9
:100360005DE00468002955D02469A40754D04FF4F7
:10037000D874056804EB01142D5915F00405956037
:1003800005682D594ED0ED08556005682C5904F0CC
:100390000204D4604FF4DA74056804EB01142D599B
:1003A00005F00F05156105682D59C5F30725956101
:1003B00005682C59240C54614FF4DC72046802EB7C
:1003C0000112A4581C700468A458240A5C700468C4
:1003D000A458240C9C700468A258120EDA704FF4D2
:1003E000DE72046802EB0112A4581C710468A45860
:1003F000240A5C710468A458240C9C710468A258F7
:10040000120EDA71006881B1016941F020010161C9
:10041000002030BDE468A8E7416A41F40011416260
:10042000012030BD6D0D1560AFE7C16841F02001BE
:10043000C160EDE72DE9F05F0546006800244669DC
:10044000D0F804908768D0F80CB0D0F810A0D0F89D
:100450001880F10748D0F90714D001218160B8074E
:1004600003D5284600F0F1F90CE0780702D54FF4E7
:10047000006407E0380702D54FF4805402E02846B4
:1004800000F0E2F9F80516D529684FF4807088600D
:10049000B80503D5284600F0DAF90CE0780502D556
:1004A00044F4005407E0380502D544F4804402E0E7
:1004B000284600F0CBF9F80316D529684FF48030B0
:1004C0008860B80303D5284600F0C3F90CE0780330
:1004D00002D544F4004407E0380302D544F48034E4
:1004E00002E0284600F0B4F9300707D55FEACB6098
:1004F00004D52968102044F40074C86070074FF0D8
:10050000080707D55FEA0B7004D52868C76028463E
:1005100000F05EF9B00706D52868C068800702D0F1
:10052000284600F057F9700607D55FEACA6004D57F
:100530002968102044F480640861B00607D55FEA9A
:100540000A7004D528680761284600F04DF9F006C6
:1005500006D528680069800702D0284600F045F9D2
:10056000B00308D55FEAC96005D529681020486046
:10057000284600F03BF9F00307D55FEA097004D57F
:1005800028684760284600F065F9300446D55FEAE0
:10059000497040D5F00504D55FEAC87001D044F039
:1005A0000104B00504D55FEA887001D544F0020467
:1005B000700504D55FEA487001D544F004043005A5
:1005C00029D518F0700F26D008F07000402815D0FB
:1005D00006DC102809D020280AD0302816D10AE0DD
:1005E00050280ED0602811D10EE044F008040DE030
:1005F00044F010040AE044F0200407E044F0400412
:1006000004E044F0800401E044F4807428688169C7
:1006100021F070018161296804204860002C05D018
:10062000686A204368622846FFF78FFEBDE8F09FA6
:1006300070B5040003D094F8200010B104E001204C
:1006400070BD204600F082F82068016821F00201A8
:10065000016000F003FA0546052604E000F0FEF90B
:10066000401B0A2811D8206840688007F6D420680B
:10067000016841F00101016000F0F0F905460BE06E
:1006800000F0ECF9401B0A2806D9606A40F40030FB
:10069000606284F82060D2E720684068C007EFD02D
:1006A000207E0128206801683DD021F08001016092
:1006B000607E01282068016838D021F04001016087
:1006C000A07E01282068016833D021F0200101605C
:1006D000E07E0128206801682ED041F01001016001
:1006E000207F01282068016829D021F008010160DD
:1006F000607F01282068016824D021F00401016096
:10070000D4E902010843D4E90412114308436168A3
:10071000491E08432168C86100206062012084F8F6
:100720002000002070BD41F08001C0E741F0400191
:10073000C5E741F02001CAE721F01001CFE741F001
:100740000801D4E741F00401D9E7000010B586B0F4
:10075000002100910191029103910068184988429B
:100760002BD11848C16941F00071C161C16901F024
:1007700000710491816941F0080181618069124C26
:1007800000F0080004904FF4807000906946204605
:1007900000F074F86015009002200190032003908F
:1007A0006946204600F06AF80848416821F4C041D3
:1007B00041F0E06141F48041416006B010BD0000AD
:1007C0000064004000100240000C014000000140A5
:1007D00070470000024B034A0021FFF7B7BD00003D
:1007E0000800002048000020704770477047000054
:1007F00070B5044690F82000012804D0606A40F4E7
:100800000020606218E0022084F82000206801685F
:1008100021F00101016000F021F905460EE000BF62
:1008200000F01CF9401B0A2808D9606A40F4003027
:100830006062052084F82000012070BD20684068B7
:10084000C007EDD1606270BD704770477047704758
:10085000704770477047000070B5044600F0FEF81E
:100860000546601C02D004480078044400F0F6F805
:10087000401BA042FAD370BD100000202DE9F84FB4
:10088000DFF8B891002409F1040A0AF1040B2346A9
:100890000F270BF1040EC9E00125A5402A40AA420A
:1008A0007DD1674ED1F804C0ACEB0608B44532D018
:1008B00014DCBCF1030F3AD009DCBCF1000F2AD0E4
:1008C000BCF1010F1CD0BCF1020F31D11DE0BCF115
:1008D000110F17D0BCF1120F2AD119E0B8F5881FFB
:1008E00019D006DCB8F5803F15D0B8F5801F1FD1B0
:1008F00011E0B8F5001F0ED0B8F5041F18D10AE0BA
:10090000CB6815E0CB681B1D12E0CB6808330FE005
:10091000CB680C330CE08B682BB1012B4FF0080334
:1009200003D0456104E0042302E0056100E00023F8
:10093000FF2A01D8064601E000F104064FEA8405CB
:1009400001D9A5F12005D6F8008007FA05FC28EAB0
:100950000C0803FA05F548EA0508C6F800804D685A
:10096000ED0062D5374DAE6946F00106AE61AD6966
:1009700024F0030605F001050095334D06EB050C48
:10098000DCF80850A607360F07FA06F825EA08052E
:10099000DFF8B880404503D14FF0000817E044E08D
:1009A000DFF8AC80404502D14FF001080FE0DFF8DE
:1009B000A480404502D14FF0020808E0DFF898809B
:1009C000404502D14FF0030801E04FF0040808FA57
:1009D00006F848EA0508CCF808804D68D9F80060A8
:1009E000ED034D4601D5164300E096432E604D6859
:1009F000DAF80060AD03554601D5164300E0964392
:100A00002E604D68DBF80060ED025D4601D51643AF
:100A100000E096432E604D68DEF80060AD0275463A
:100A200001D5164300E096432E60641C0D682A46EB
:100A3000E5407FF431AFBDE8F88F000000040140CD
:100A400000001110001002400000014000080140A9
:100A5000000C014000100140001401400148806872
:100A6000704700001000002002488168027811449D
:100A70008160704710000020074810B5016841F000
:100A800010010160032000F075F8002000F006F866
:100A900000F024F8002010BD0020024070B50D4D7C
:100AA00004464FF47A712878B1FBF0F00A490968DE
:100AB000B1FBF0F000F0CCFA48B9102C07D20022BC
:100AC0002146501E00F036F800206C6070BD0120F9
:100AD00070BD0000100000201C0000200C4808B56C
:100AE000816941F001018161816901F00101009199
:100AF000C16941F08051C161C06900F0805000902F
:100B00000448416821F0E06141F00071416008BD96
:100B10000010024000000140002809DB00F01F0225
:100B2000012191404009800000F1E020C0F800114F
:100B300070470000F0B40E4B1B680C46C3F3022351
:100B4000C3F10705042D00D90425191D072901D279
:100B5000002300E0DB1E012606FA05F1491E2140B4
:100B600099409E40761E16403143F0BC00F033BBE6
:100B70000CED00E0064900F0070208684FF6FF039D
:100B8000184040EA0220034A104308607047000002
:100B90000CED00E00000FA052DE9F0470F460500D6
:100BA00061D0434E306800F00700B84209D2306887
:100BB00020F0070038433060306800F00700B8428A
:100BC00051D128683B4C810712D5400703D5606896
:100BD00040F4E06060602878000703D5606840F466
:100BE000605060606068A96820F0F00008436060B1
:100BF0002878C00728D06868012810D0216802280A
:100C000010D0890700292EDA616821F00301014321
:100C10006160FFF723FF804641F288390DE02168CB
:100C20008903EFE78901EDE7FFF718FFA0EB080163
:100C3000494502D90320BDE8F0876068696800F083
:100C40000C00B0EB810FEFD1306800F00700B84224
:100C50000BD9306820F0070038433060306800F06E
:100C60000700B84201D00120E5E72878400705D504
:100C70006068E96820F4E060084360602878000755
:100C800006D56068296920F4605040EAC1006060C0
:100C900000F018F86168084AC1F30311515CC840BC
:100CA0000649086006480068FFF7F8FE0020C2E722
:100CB0000020024000100240BC1200081C0000206E
:100CC0001400002012A185B00FC98DE80F0014A0F8
:100CD000144A006804905168134801F00C03042B77
:100CE00010D0082B0ED1C1F38343C9031DF80300B4
:100CF0000AD5516804AAC1F34041515C0A4A5043E5
:100D0000B0FBF1F005B0704708494843FAE700002E
:100D100002030405060708090A0B0C0D0E0F10103C
:100D2000010200000010024000127A0000093D009C
:100D30002DE9F84F040070D02078C04DC00749D08D
:100D40006868C0F38100012807D06868C0F381009B
:100D5000022809D16868C00306D52868800339D500
:100D600060680028E7D035E06068B0F5803F0BD0C0
:100D700010B1B0F5A02F11D0286820F48030286081
:100D8000286820F4802002E0286840F48030286041
:100D9000606890B1FFF762FE06460AE0286840F4FA
:100DA00080202860F0E700BFFFF758FE801B642812
:100DB00073D828688003F7D50CE0FFF74FFE06468E
:100DC00005E000BFFFF74AFE801B6428F0D82868C2
:100DD0008003F7D420789A4E80074FF001094FF036
:100DE000000839D5686810F00C0F07D06868C0F3A8
:100DF0008100022809D16868C00306D428688007EA
:100E000014D52069012808D110E02069B0B1C6F8D6
:100E10000090FFF723FE074605E00AE1FFF71EFEFC
:100E2000C01B0228C4D828688007F7D528686169E4
:100E300020F0F80040EAC10028600DE0C6F800800C
:100E4000FFF70CFE074604E0FFF708FEC01B022870
:100E500023D828688007F7D4207800072CD5794854
:100E6000A169D9B1C0F80090FFF7F8FD074604E08A
:100E7000FFF7F4FDC01B02280FD8686A8007F7D57A
:100E800071484FF4FA510068B0FBF1F0009000BFD8
:100E90000098411E0091FAD20EE080E0C0F8008078
:100EA000FFF7DCFD074604E0FFF7D8FDC01B022872
:100EB00075D8686A8007F7D42078400760D5E8695C
:100EC0000027C00008D4E86940F08050E861E86974
:100ED000012700F0805000905C480168C90513D4D8
:100EE0000168834641F480710160FFF7B7FD8246D7
:100EF00006E000BFFFF7B2FDA0EB0A0064284ED861
:100F0000DBF80000C005F5D5E06801280AD008B17B
:100F1000052813D0286A20F001002862286A20F0F2
:100F2000040002E0286A40F001002862E06841F213
:100F3000883B98B1FFF792FD82460BE0286A40F0AB
:100F400004002862EEE700BFFFF788FDA0EB0A016E
:100F500059455AD8286A8007F6D50CE0FFF77EFD80
:100F6000824605E0FFF77AFDA0EB0A0159454CD80F
:100F7000286A8007F6D41FB1E86920F08050E86144
:100F8000E06988B36968C1F38101022944D002286D
:100F9000C6F8608004D0FFF761FD044638E034E015
:100FA000FFF75CFD074604E0FFF758FDC01B022871
:100FB0002BD828688001F7D4206AB0F5803F05D18E
:100FC0006868A16820F4003008436860D4E908012B
:100FD0000843696821F4741108436860C6F860909A
:100FE000FFF73CFD044606E025E000BFFFF736FDB5
:100FF000001B022809D828688001F7D51BE000BF34
:10100000FFF72CFD001B022802D90320BDE8F88F52
:1010100028688001F4D40EE00128F7D06868226ABD
:1010200000F48031914204D1616A00F4701088426A
:1010300001D00120EAE70020E8E7000000100240AC
:1010400000004242800442421C0000200070004028
:1010500010B5401EB0F1807F01D3012010BD4FF0CC
:10106000E02460610F21601700F0B5F80020A06156
:1010700007202061002010BDFEE70000F0B52548E4
:101080008FB0C16941F00071C161C0690AA900F067
:1010900000700E904FF4006000240125032681E8C3
:1010A00071001D4F3846FFF7E9FB28030A900BAA91
:1010B000022082E851000AA93846FFF7DFFB1848F2
:1010C0001649016009214160B107C0E90214090B0A
:1010D000016129054161047644768476C5760477FA
:1010E0004577FFF7A5FA05940494019402940895B6
:1010F00000940394CDE90645694609480994FFF731
:10110000ADF80748FFF774FB02210548FFF730F8F8
:101110000FB0F0BD00100240000801400064004024
:1011200020000020FEE7704770477047FFF79CBC27
:1011300030B58FB028216846FEF7FBFF14210AA8BE
:10114000FEF7F7FF01210804CDE900100024029406
:1011500002250491CDE907504FF4E010099068464C
:10116000FFF7E6FD0F20CDE90A056802CDE90C4046
:1011700002210AA80E94FFF70FFD0FB030BD00004A
:101180000D48016841F00101016041680B4A1140BE
:10119000416001680A4A11400160016821F4802120
:1011A0000160416821F4FE0141604FF41F0181603C
:1011B0000449C00308607047001002400000FFF8B7
:1011C000FFFFF6FE08ED00E00148FFF733B900002D
:1011D00020000020FEE70907090E002804DB00F1CB
:1011E000E02080F80014704700F00F0000F1E020CC
:1011F00080F8141D704702E008C8121F08C1002AB9
:10120000FAD170477047002001E001C1121F002A87
:10121000FBD1704788B0FFF72FFCFFF789FF22480A
:10122000816941F020018161816901F0200106910D
:10123000816941F004018161816901F00401069135
:10124000816941F008018161806900F00800069021
:10125000FFF714FF002211461420FFF76BFC142047
:10126000FFF75AFC082004904FF49170019002207F
:1012700000900020039002908DF814000B4B0CA2FC
:1012800069460C48FEF786FF084C241F20704FF477
:101290007A70FFF7E1FA231D07A269460548FEF7B9
:1012A00079FF2070FEE700000010024004000020DB
:1012B0006162000020000020626300000000000066
:1012C000000000000102030406070809EC120008F0
:1012D0000000002020000000F61100080C13000898
:1012E0002000002048040000061200080000000052
:1012F00000000000000000000000000001000000ED
:0C13000010000000000000000024F400B9
:04000005080000ED02
:00000001FF
